:02000004080AE8
:1000000000000A08FC210A0800000500060005019E
:080010000402E90300000000F6
:10001800EC1C0A0809480A4908B5884205D0094A6B
:10002800824202D0121A01F081FD0748074A0021D6
:10003800121A01F086FD064808BD00BF0003002023
:1000480064210A0870030020700300203405002092
:100058003405002070B501F0A3FB074B074C1E4682
:10006800E41AA4080025A54204D056F8253098477C
:100078000135F8E770BD00BF20210A0854210A089D
:1000880000F018B808B500F08DF8BDE8084001F098
:1000980049BB00F0EDBC00F0EBBC00F0F1BC00F097
:1000A800EFBC0078B0FA80F0400970470123037074
:1000B8007047704708B501F049FA4FF4614101F003
:1000C80033FA01F043FA01F036FA0028F9D001F0CA
:1000D8003DFA144900F08FFD01F0A8F900224FF411
:1000E800165101F09DF901F0A1F901F09DF90028E0
:1000F800F9D001F02BFA0C4900F07DFD0B4B0C48B0
:10010800196800F0CFFA0A4800F0E7F918B101F0D1
:100118001DFA084902E001F019FA0749BDE808404C
:1001280000F069BD001D0A080C1D0A0874030020B0
:10013800840300201D1D0A08311D0A0838B5174917
:10014800054600F032FE002401F070F903681B69CF
:10015800984700B301F06AF903685B699847C0B231
:100168005228F1D1032CEFD001F060F90368013473
:100178005B699847A0F13001284600F06BFE01F05A
:10018800E5F9074900F024FD01F0E0F9296800F0DD
:1001980032FDE4B2E6E7284638BD00BFBE1D0A08B6
:1001A8004D1D0A0810B588B06846FFF7C7FF01F073
:1001B800CDF9184900F00CFD01F0C8F9009900F0DC
:1001C8001AFD694604A800F012FE134800F085F9EC
:1001D80020B1049A1149104800F0E3FA01F0B6F989
:1001E8000F4900F0F5FC01F0B1F90446684600F04B
:1001F80042FE0A220146204600F055FD41F28830B1
:1002080000F04EFC04A800F089FD684600F086FD69
:1002180008B010BD571D0A0884030020621D0A0893
:100228006B1D0A0838B50E4C00F006FB0D4D0E4943
:10023800204600F0BAFD20460C4C2A460C4901F035
:1002480015FB0C4B40F25B720B49204600F05EF840
:100258002A462046BDE83840084901F007BB00BFE0
:100268007403002070030020771D0A08840300200F
:10027800250D0A08BB000A0800030020D1070A0858
:1002880038B50B4B8469054603607CB16368013B54
:1002980063605BB9236820469B689847A368013B65
:1002A800A3601BB923682046DB689847284638BDF9
:1002B800C01E0A0810B50446FFF7E2FF2046FFF704
:1002C800ECFE204610BD38B51D46059B0446036369
:1002D8000023436302B1826419B104F1380000F0CD
:1002E80091FD049BE0692365069BA4F84C50FF2B05
:1002F800B8BFFF23A4F8543008B1FFF7D0FEB4F814
:100308005400FFF7C8FEE06138BD00002DE9FF4149
:100318000446174698460E46002500F055FFE5614D
:100328000A4904F1380000F040FDFF2302930F232F
:1003380000932046A564CDF804803B463246294602
:10034800FFF7C1FF204604B0BDE8F081BE1D0A08D2
:1003580010B50446204600F0A7FE0028FAD0204633
:1003680000F049FEC0B210BD2DE9F0470546C4694A
:100378008A46FFF7EDFF4FF0010846462070EB690B
:10038800002793F8009009F0F0092846FFF7E0FFEE
:10039800EB69741C985500F07F0303FB087703068C
:1003A800A4B2BFB24FEAC81801D52646EDE7631ECE
:1003B800B9F1300F8AF8003013D12846D5F81C80DF
:1003C800FFF7C6FF08F804002846D5F81C80FFF799
:1003D800BFFFF41C0236B6B2A4B208F80600022326
:1003E80000E000231B1B9EB2A3199BB29F420BD9AE
:1003F8002846FFF7ADFFB5F85430A34284BFEB6938
:1004080018550134A4B2EFE7B5F85400A0422CBF48
:1004180020460020BDE8F087F7B507468E461E4601
:100428001D46002405F07F0302A9ED09214418BFE9
:1004380043F08003013401F8043CE4B2002DF1D10B
:10044800C4F10403D11802F803E0A54206DA01A8B2
:100458002B1B285C134458710135F6E7721C2244A3
:10046800384600F03AFD054600F0DEF901347862BE
:100478003444A8B2231A5842584103B0F0BD10B50D
:100488000446C369E0221A70C36900225A70C16920
:10049800022200F022FD204600F044FE00F0C4F9DC
:1004A8006062A06210BDF0B50D4602339BB26C1AB3
:1004B80015F8016BA4B23EB1B0F854709F4203D94D
:1004C8005C1CD654A3B2F2E7191B0A44211202F8A5
:1004D800021C02F8014C1846F0BD38B5054600F07C
:1004E80025FF002814BF0124002402D1284600F06B
:1004F80019FE204638BD00002DE9F04387B00446B8
:10050800894617461E46DDF83880FFF7E6FF0546A0
:10051800002840F0BD80A16C39B90346B4F84C20DE
:10052800A16B204600F0FAFC09E0684600F018FBD1
:100538002B46B4F84C206946204600F04FFE0028B0
:1005480000F0A280012323849DF84C30042B15D1A0
:10055800524B18689A880090ADF804209B79E2699C
:1005680000988DF80630C2F80500531DBDF8041038
:100578009DF8062099809A710C2312E06A46484B30
:10058800D4F81CC0186859681B7A03C213706B46EC
:1005980003CBCCF80500CCF8091013788CF80D3093
:1005A8000E23B8F1000F0AD09DF840209DF83C10AA
:1005B800520142F0060242EAC102D2B200E002222F
:1005C8009DF8481009B902F0FD022FB116B942F0A2
:1005D800800201E042F0C002E169581CCA54226D51
:1005E800E16912120A54E169206D9A1C8854033398
:1005F800E26949462046FFF756FFB8F1000F0BD0D5
:100608000346E26941462046FFF74DFFE26903468B
:1006180011992046FFF747FF67B10346E26939465B
:100628002046FFF740FF2EB10346E26931462046D7
:10063800FFF739FF431F9BB2E26910212046FFF7FD
:10064800EBFE00F0F1F84FF47A766062A062204683
:1006580000F02AFD40B900F0E7F8A36AC01A236D3C
:1006680073439842F3D90FE069462046FFF77CFEB2
:10067800042809D1E369DE7836B900F0D5F80125F8
:10068800A06284F82C6004E0204600F04BFD00E0F6
:100698000025284607B0BDE8F08300BF821D0A0880
:1006A800891D0A087FB504230593012304930023B9
:1006B80003930293019300931A46FFF71DFF07B0B7
:1006C8005DF804FB2DE9F14F0D9E04468B469146DB
:1006D8009A469DF828809DF82C509DF83070FFF7B9
:1006E800FCFE00284BD0B4F854200021E06901F04A
:1006F80028FA0523E26959462046FFF7D4FE6B1E07
:10070800012B12D8238CE26901339BB223841B127C
:100718001354411CE369228C89B2023080B25A54C6
:100728001EB1238C5A1C22843380002291B2831874
:100738008A459BB209D9B4F8546001329E4204D963
:1007480019F80160E169CE54F0E7B8F1000F0CBF69
:10075800302131210FB141F00801022D02D141F0C1
:10076800040103E0012D08BF41F002012046053BCA
:10077800E2699BB201B0BDE8F04FFFF74DBE01B092
:10078800BDE8F08F1FB5089C0394002402949DF8DF
:100798001C4001949DF818400094FFF793FF04B0A3
:1007A80010BD7FB5054610460E46144601F002FA04
:1007B80000230293019300932246034631462846BC
:1007C800FFF7E0FF04B070BD10B50446FFF785FEE3
:1007D80010B12046FFF753FEE06908B1FFF75FFC50
:1007E80004F1380000F09AFA2046FFF749FD204648
:1007F80010BD00F021B8000008B5024B1B681B6B48
:10080800019308BDD001060808B5024B1B68DB6ED2
:10081800019308BDB801060808B5024B1B685B6860
:10082800019308BD9C01060808B5024B1B685B696B
:10083800019308BD9C01060808B5024B1B681B689C
:10084800019308BDB001060808B5024B1B681B6878
:10085800019308BDBC01060808B5024B1B685B681C
:10086800019308BDBC01060808B5024B1B689B68CC
:10087800019308BDBC01060808B5024B1B68DB687C
:10088800019308BDBC01060808B5024B1B681B692B
:10089800019308BDBC01060808B5024B1B681B6A1A
:1008A800019308BDBC01060808B5024B1B681B6B09
:1008B800019308BDBC01060808B5024B1B685B6CB8
:1008C800019308BDBC01060808B5024B1B68DB692B
:1008D800019308BDB401060808B5024B1B689B6963
:1008E800019308BDC401060808B5024B1B685B6A82
:1008F800019308BDC401060808B5024B1B689B6A32
:10090800019308BDC401060808B5024B1B68DB6AE1
:10091800019308BDC401060808B5024B1B681B6B90
:10092800019308BDC401060808B5024B1B685B6B40
:10093800019308BDC401060808B5024B1B681B6C6F
:10094800019308BDC401060808B5024B1B68DB6C9F
:10095800019308BDC401060808B5024B1B681B6853
:10096800019308BDD801060808B5024B1B685B68EF
:10097800019308BDD801060808B5024B1B681B691E
:10098800019308BDD801060808B5024B1B685B69CE
:10099800019308BDD801060808B5024B1B689B697E
:1009A800019308BDD801060808B5024B1B68DB692E
:1009B800019308BDD801060808B5024B1B681B6ADD
:1009C800019308BDD801060808B5024B1B685B6A8D
:1009D800019308BDD801060808B5024B1B685B6C7B
:1009E800019308BDC001060808B5024B1B689B6C43
:1009F800019308BDC001060808B5024B1B681B6DB2
:100A0800019308BDA801020808B5024B1B685B6882
:100A1800019308BDA401060808B5024B1B685B6971
:100A2800019308BDA401060808B5034B1B68D3F859
:100A38009030019308BD0000A401060808B5034BD7
:100A48001B68D3F89C30019308BD0000A401060878
:100A580008B5024B1B68DB6B019308BDCC01060887
:100A680008B5024B1B681B69019308BDC80106083D
:100A780008B5024B1B681B68019308BDA001060856
:100A880008B5024B1B685B68019308BDA001060806
:100A980008B5024B1B689B68019308BDA0010608B6
:100AA8000021FFF7B9BF10B58368044613B10322CC
:100AB80001469847204610BD704710B50446FFF719
:100AC800ECFA204610BDF8B50F4600F10806051DE2
:100AD800002416F8011D0A22384600F0C0F8AE427C
:100AE800044407D0002CF4D02E21384600F074F8C6
:100AF8000444EEE72046F8BD10B50446044B112225
:100B080040F8043B002101F01CF8204610BD00BF4E
:100B18009C1D0A0810B59DF8084044EA032343EADF
:100B2800024242EA016104234160037510BD0000DE
:100B380037B5044D05609DF818500095FFF7EAFF9A
:100B480003B030BD9C1D0A0837B50D788B784A78FC
:100B5800C97800912946FFF7DDFF03B030BD0000DA
:100B680010B50446024B0360FFF7EEFF204610BDA8
:100B78009C1D0A08014A024B1A607047631E0A0846
:100B8800DC030020F8B506460D468F180024BD4248
:100B98000CD0336815F8011B9B683046984700282D
:100BA80001DB0444F3E7002C08BF04462046F8BDE7
:100BB80070B505460C46084649B100F0FBFF2B68A6
:100BC800024621462846BDE87040DB68184770BDDC
:100BD80008B5FFF7EDFF08BD03689B68184738B5EF
:100BE8000D210546FFF7F8FF0A2104462846FFF7BE
:100BF800F3FF204438BD38B50546FFF7D9FF044652
:100C08002846FFF7ECFF204438BD012A98BF0A2286
:100C180030B50B468BB000218DF824100DF123045C
:100C2800B3FBF2F505FB1233DBB2092B94BF30336B
:100C38003733DBB2214604F801392B46002DEFD1BA
:100C4800FFF7B6FF0BB030BD10B422B90368C9B2C4
:100C58009B6810BC1847D2B210BCFFF7D6BFFFF78D
:100C6800F3BF2DE9F04107460E4615462AB9BDE8FF
:100C7800F0410368C9B29B6818470A2A02D10029C3
:100C880001DA04E0D2B2BDE8F041FFF7BEBF2D2182
:100C9800FFF7A2FF2A46044671423846FFF7B5FF20
:100CA8002044BDE8F08138B50546FFF7DAFF044671
:100CB8002846FFF794FF204438BD10B50446FFF7D7
:100CC800F2FE204610BD0000034800238360034A5B
:100CD800034900F0CBBD00BFE003002070030020F3
:100CE800C30C0A08704710B50446FFF7D6F920462A
:100CF80010BD000070B504460E46074B0025036082
:100D080040F80C5FFFF778FD30462671FFF7DCFDF1
:100D1800A560204670BD00BF941E0A0810B50446A1
:100D28000068FFF7ADFE204610BD10B50446006808
:100D380008B1FFF7A5FE00232360A360636010BD20
:100D480038B504460D4600680131FFF7A1FE10B121
:100D580084E82100012038BD10B50368044613B1AA
:100D680043688B4207D22046FFF7EAFF20B1A36809
:100D78000BB922681370012010BD70B50E461146DC
:100D880004461546FFF7E8FF18B92046FFF7CDFFE0
:100D980009E02A463146A560206800F0C7FE2268AF
:100DA800A3680021D154204670BD38B500230446FD
:100DB80003604360836003730D4639B1084600F051
:100DC800F9FE294602462046FFF7D7FF204638BDE0
:100DD800884210B50B46044607D0096819B19A68CD
:100DE800FFF7CBFF01E0FFF7A0FF204610BD10B5CD
:100DF800044600230360436083600373FFF7E8FF42
:100E0800204610BD38B505460C4641B1084600F0ED
:100E1800D1FE214602462846FFF7AFFF01E0FFF763
:100E280084FF284638BD70B504460E4609B900202F
:100E380070BD6AB18368D5182946FFF78DFF002871
:100E4800F5D02068A3683146184400F0ABFEA560D1
:100E5800012070BD13B50A2204460846694600F011
:100E680018FC684600F0A6FE694602462046FFF7D1
:100E7800DAFF02B010BD006808B100F045BE704747
:100E88004FF69C7337B50D4C002563804FF6FF7302
:100E98002846A3802570FFF7B7FD02A840F8045D37
:100EA8002A462946FFF7B0FC019B1E2B04D10323D9
:100EB800237011236580A38003B030BDF0030020A8
:100EC80037B502AC036804F8011DDD6B012247F257
:100ED80030532146A84703B030BD10B40368DC6B1B
:100EE80047F23053A44610BC604737B502AC0368DC
:100EF80004F8011DDD6B214613460122A84703B003
:100F080030BD704770470020704710B50446FFF7A2
:100F1800C4F8204610BDFFF7C0B800002DE9F04323
:100F28001F4603688FB0DB6A06460C469046984712
:100F3800134B186803681B689847F0B102A8FFF7BD
:100F4800DBFD204600F036FE0023009381B23B46CD
:100F580003AA2046FFF748FD78B9336809ADD3F8EE
:100F68002090084B03AC08930FCC0FC5236842466A
:100F78002B7008A93B463046C8470FB0BDE8F08340
:100F8800B41F0A089C1D0A0810B5044603689B682C
:100F98009847A368013BA3602BB923682046BDE8A6
:100FA8001040DB68184710BD70B5044606464D6909
:100FB800044B8C3544F8043B0FCD0FC42B683046E6
:100FC800237070BD9C1D0A0810B543690446B3F828
:100FD8008620B3F884309A4205D06269B2F884302A
:100FE8001344187910BD03681B6998470028F4D189
:100FF8004FF0FF3010BD10B543690446B3F88620A2
:10100800B3F884309A4208D06269B2F88430591C27
:10101800A2F884101344187910BD03681B69984717
:101028000028F1D14FF0FF3010BD10B504692068D9
:10103800FFF712FC10B12068FFF72EFC2046BDE830
:101048001040FFF72AB8F8B543691746B3F8862069
:10105800B3F8843005469A420E4606D103681B69E8
:10106800984710B94FF0FF3414E069693046B1F879
:101078008430B1F886401944E41ABC4228BF3C4683
:101088000431224600F052FD6A69B2F884302344E4
:10109800A2F884302046F8BD42690023A2F88430C3
:1010A8004269A2F88630704738B542690446B2F8FA
:1010B80086301BB1B2F884209A420BD0184B1868BE
:1010C80003681B68984718B363691868FFF7C4FB7F
:1010D80018B91DE0FFF7E0FFF0E76069B0F8861087
:1010E8007F2915D8051DC1F1800200232944006815
:1010F800FFF7CAFB00280BDD6369B3F886200AB93D
:10110800A3F884206269B2F886301844A2F88600F1
:101118006269B2F88630B2F88400181A38BD00BF88
:10112800B41F0A0838B5436904461868FFF794FBEA
:1011380018B163691868FFF7AFFB6569FFF7B4FB7F
:1011480028606069112200218C3000F0FAFC2046EA
:10115800BDE83840FFF7A0BFF8B54FF47A73836055
:10116800174B002646600360466186610446A0204E
:101178000F46FEF78EFF054638B10760A0F8846079
:10118800A0F886608830FFF7B7FC1420FEF781FFCF
:10119800034628B10122426082600A4A0561026062
:1011A800A0696561A36128B14368013B43600BB93D
:1011B800FFF7EAFE2046FFF76FFF2046F8BD00BFA5
:1011C800C01E0A08A41E0A0810B50446FFF76CFBE7
:1011D80001462046FFF7C0FF204610BD2DE9F0412B
:1011E800984603688AB0DB6A06460C461546984757
:1011F8002F4B186803681B689847002855D02B4662
:1012080006220121CDF8008002207769FFF72CFB28
:101218002023386002930027736903971B68012015
:101228000193244B02AA009323493B46FFF7E4FBB2
:1012380073691868FFF710FB002836D03046FFF7AF
:101248002BFF0223ADF808302B0A8DF80A30E3791A
:101258004FF4FA508DF80C30A3798DF80B508DF8B7
:101268000D3063798DF80E3014F8043F8DF80F3087
:10127800FFF7B2FB73690546102202A91868FFF749
:10128800FBFA80462846FFF7A7FB0FCC75698C351B
:101298000FC523682B70B8F1000F05D033683046AE
:1012A800DB6A9847384600E001200AB0BDE8F081C3
:1012B800B41F0A080B1F0A08041F0A0810B543695F
:1012C80004461868FFF7C8FA08B9002010BD074B94
:1012D800186803681B6898470028F6D0636918687F
:1012E800FFF7B2FAB0FA80F0400910BDB41F0A083F
:1012F8002DE9F3410025456004460E4617469846F9
:10130800FFF7DCFF60B160690195CDF800802B46DE
:101318003A4631460068FFF7CFFA002803DA01E0C1
:101328004FF0FF30606002B0BDE8F08138B5044688
:10133800FFF7C4FF00BB6369B3F88610B3F88420D5
:10134800914219D11868FFF787FA28B163691868BC
:10135800FFF77AFA012801D000250EE0236820461D
:101368001B699847002814BF0125002505D123686B
:101378002046DB6A984700E00125284638BD08B5B5
:10138800FFF79CFF003018BF012008BD024B1A6808
:10139800024B1A60704700BF04030020F8030020C6
:1013A800704741747047007CFFF7C6BA007CFFF7AE
:1013B800A3BA007CFFF7B0BA007CFFF7A5BA007C9F
:1013C800FFF7B2BA10B50446FEF767FE204610BD17
:1013D80070B5457C04460E4625B9007CFFF7ACFA8B
:1013E800002805DD3146207CBDE87040FFF77CBA57
:1013F800284670BD10B504460846114600226260B2
:101408004FF47A72A260054A207422600122627445
:101418001A46FFF761FA204610BD00BF501F0A08A0
:101428000023007CFFF790BA01207047F8B5194CEB
:1014380025684DB98420FEF72CFE064618B1842293
:10144800294600F07EFB2660134D2E684EB9842095
:10145800FEF71FFE074618B18422314600F071FBE3
:101468002F600E4F396811F0010611D13846FEF78A
:1014780018FE68B1226831462B680948FFF7BAFFA1
:101488003846FEF713FE074A0749054800F0EEF90B
:101498000348F8BD1804002010040020140400209C
:1014A800FC03002070030020A9130A084174704748
:1014B80070470021007CFFF76FBA0121007CFFF71D
:1014C8006BBA007CFFF760BA007CFFF755BA38B5F5
:1014D8000446007C0D46FFF757FA002801DC607CC3
:1014E80020B12946207CFFF75FFA012038BD007C37
:1014F800FFF762BA10B50446FEF7CFFD204610BDCF
:1015080010B50446002363604FF47A73A360054B5B
:10151800084623600123217463741146FFF71CFAFF
:10152800204610BD801F0A080022007CFFF71CBA65
:10153800007CFFF749BAFFF7FBBF10B50446142239
:10154800002100F0FEFA204610BD000030B50E4D17
:1015580087B001A8FFF7F1FF296811F0010410D145
:101568002846FEF79EFD60B101AA21460748FFF70D
:10157800C7FF2846FEF79AFD054A0649034800F0CA
:1015880075F9024807B030BD1C040020240400206F
:1015980070030020B9140A0810B50446142200216B
:1015A80000F0CFFA204610BD10B50E4C86B001A849
:1015B800FFF7F2FF2368DB0710D42046FEF771FD22
:1015C80060B101AA01210848FFF79AFF2046FEF7FB
:1015D8006DFD064A0649044800F048F9024806B07D
:1015E80010BD00BF20040020380400207003002034
:1015F800B9140A087047002211461046FFF730BA9E
:101608000348044B044A0549036000F02FB900BFA2
:101618004C040020B01F0A0870030020FD150A08BA
:1016280010B5044600F0C6FA01382318204698423F
:1016380006D20278197800F8011B03F80129F6E7A9
:1016480010BD70B50C46911E222920D82546294682
:1016580010B9234430220EE0B0FBF2F602FB16006C
:10166800C1B2092805F8011B94BF3031573105F87C
:10167800011C3046EBE7994202D201F8012BFAE748
:10168800002320460B70FFF7CBFF204670BD0020DB
:1016980070BD38B5031E0C4615460BDAB3F1004F82
:1016A8004FF02D0214BF5842184601230A702A46EB
:1016B800194400E00123FFF7C4FF204638BD0000AD
:1016C80008B5144B33B1FFF741FF03681B6998470E
:1016D800002816DC104B33B1FFF7A8FE03681B691E
:1016E8009847002810DC0D4B0BB1AFF300800C4B72
:1016F8007BB1FFF759FF03681B699847002806DC90
:1017080008BDAFF30080E5E7AFF30080EBE7AFF388
:10171800008008BD0000000000000000000000007C
:101728000000000008B5FFF7CBFFFFF77DF8014B7D
:10173800186008BD580400200248034A0349121AD9
:1017480000F0F4B9004002400440024060210A0859
:1017580007B5002300931A466FF07701FFF76EF97B
:1017680003B05DF804FB000007B543880A2B08D0D6
:10177800502B09D1094B1B683BB103B05DF804EB52
:101788001847FFF7E5FF06E0002300931A466FF0BD
:101798007701FFF753F903B05DF804FB500400200C
:1017A80038B5104C104D2368AB42104B0CBF0122CA
:1017B80000221A7002D0FFF7BFFF2560FFF72CF850
:1017C80000F0C8F90A4B1BB1FFF726F8AFF3008009
:1017D80000210748FFF73CF9BDE8384000210548DB
:1017E800FFF722B9004002401E1C279A540400202B
:1017F8000000000071170A0813B5084C00231A46A8
:10180800194600932046FFF793F92046044A0549F4
:1018180002B0BDE8104000F029B800BF5C04002009
:1018280070030020C10A0A0870B50C4C0C4E0D4D0F
:1018380000212046FFF75EFA20460B4C3246294627
:1018480000F014F801212046FFF754FA32462946E1
:101858002046BDE8704000F009B800BF74040020BD
:1018680070030020ED0C0A08840400200B46014692
:10187800184600F04DB90000244B1A68D0075CBF29
:1018880001221A60224B1A68D1075CBF01221A6034
:10189800204B1A68D2075CBF01221A601E4B1A68D7
:1018A800D0075CBF01221A601C4B1A68D1075CBFC5
:1018B80001221A601A4B1A68D2075CBF01221A600B
:1018C800184B1A68D0075CBF01221A60164B1A68B9
:1018D800D1075CBF01221A60144B1A68D2075CBF9B
:1018E80001221A60124B1A68D0075CBF01221A60E5
:1018F800104B1A68D1075CBF01221A600E4B1A6898
:10190800D2075CBF01221A60704700BFC0040020E4
:10191800BC040020B8040020B4040020B004002057
:10192800AC040020A8040020A4040020A004002087
:101938009C0400209804002094040020184B1A6886
:10194800D1075CBF01221A60164B1A68D2075CBF28
:1019580001221A60144B1A68D0075CBF01221A6072
:10196800124B1A68D1075CBF01221A60104B1A6823
:10197800D2075CBF01221A600E4B1A68D0075CBF01
:1019880001221A600C4B1A68D1075CBF01221A6049
:101998000A4B1A68D2075CBF01221A60704700BF61
:1019A800E0040020DC040020D8040020D404002037
:1019B800D0040020CC040020C8040020C404002067
:1019C800184B1A68D1075CBF01221A60164B1A68B7
:1019D800D2075CBF01221A60144B1A68D0075CBF9B
:1019E80001221A60124B1A68D1075CBF01221A60E3
:1019F800104B1A68D2075CBF01221A600E4B1A6896
:101A0800D0075CBF01221A600C4B1A68D1075CBF73
:101A180001221A600A4B1A68D2075CBF01221A60B9
:101A2800704700BF00050020FC040020F8040020D7
:101A3800F4040020F0040020EC040020E804002056
:101A4800E4040020244B1A68D0075CBF01221A6006
:101A5800224B1A68D1075CBF01221A60204B1A6812
:101A6800D2075CBF01221A601E4B1A68D0075CBF00
:101A780001221A601C4B1A68D1075CBF01221A6048
:101A88001A4B1A68D2075CBF01221A60184B1A68F1
:101A9800D0075CBF01221A60164B1A68D1075CBFD9
:101AA80001221A60144B1A68D2075CBF01221A601F
:101AB800124B1A68D0075CBF01221A60104B1A68D3
:101AC800D1075CBF01221A600E4B1A68D2075CBFAF
:101AD80001221A60704700BF300500202C05002045
:101AE8002805002024050020200500201C050020D2
:101AF8001805002014050020100500200C05002002
:101B080008050020040500200A22002100F0E0B8A2
:101B180010B5054C13462CB10A4601460220AFF316
:101B2800008010BD204610BD0000000010B5431E07
:101B38000A44914204D011F8014B03F8014FF8E729
:101B480010BD03460244934202D003F8011BFAE792
:101B58007047000038B5124B05461C68A36BD3B913
:101B68001820FEF785FF43F20E33A06303804AF680
:101B7800CD33438041F2342383804EF26D63C380BA
:101B88004DF6EC630381052343810B2383810122F6
:101B98000023C0E90423A36B00221D615A6138BDEC
:101BA8006C030020034611F8012B03F8012B002ACF
:101BB800F9D17047034613F8012B002AFBD1181AF4
:101BC800013870472DE9F0470F4680463F48D0F866
:101BD80000903D4615F8014B09EB0400407800F0F1
:101BE800080000F0FF0608B12F46F2E72D2C03D1BC
:101BF800BD1C7C78012603E02B2C04BF7C78BD1C1F
:101C080013B1102B0AD15BE0302C57D1287800F0A3
:101C1800DF0058284DD16C7810230235002E14BFF0
:101C28004FF0004C6FF0004CBCFBF3FA002738462D
:101C380003FB1ACC09EB040E9EF801E01EF0040F1A
:101C480001D0303C0BE01EF0030E1BD0BEF1010F9B
:101C58000CBF4FF0370E4FF0570ECEEB0404A342E3
:101C680010DDB7F1FF3F0AD0504506D801D16445D1
:101C780003DC03FB0040012701E04FF0FF3715F8B4
:101C8800014BD7E77B1C0CD1002E4FF0220314BF69
:101C98004FF000406FF00040C8F800302AB9BDE8A6
:101CA800F08706B1404272B107B1691E1160BDE804
:101CB800F0873024002BB1D10823AFE70A23ADE722
:101CC800302CA3D0AAE7BDE8F08700BF08030020A6
:101CD80013460A46014602480068FFF773BF00BF73
:101CE8006C0300201D000A085D000A0889000A0824
:101CF8008D000A080000000053657269616C206F4E
:101D080070656E0053656E736F7220636F6E6E65DB
:101D18006374656400436F6E6E65637465642074F4
:101D28006F2062726F6B6572004661696C65642032
:101D3800746F20636F6E6E65637420746F206272B7
:101D48006F6B65720072656164696E673A20004462
:101D5800697374616E63653A200064697374616EB7
:101D6800636500496E742072616E67653A20006D84
:101D7800617850686F746F6E350000044D5154548B
:101D88000400064D51497364700300000000000010
:101D980000000000CF0A0A08C10A0A08C30A0A0894
:101DA80066006C6E00666E00636F6465006465743F
:101DB80061696C000D0A00253031307520005D2006
:101DC800002564002C200028293A2000205B0063AD
:101DD8006F6465203D200025690064657461696C45
:101DE80073203D2000626175640053657269616CFF
:101DF8000055534253657269616C3100747970659E
:101E080000706172616D00636D6400696400686EE2
:101E180064007374726D0066696C74006C766C0093
:101E280061646448616E646C65720072656D6F769A
:101E38006548616E646C657200656E756D48616EAB
:101E4800646C657273004A534F4E53747265616DCA
:101E58004C6F6748616E646C657200617070006EEB
:101E68006F6E6500747261636500696E666F0077F6
:101E780061726E006572726F720070616E696300E4
:101E8800616C6C000000000000000000ED0C0A0806
:101E9800EF0C0A0800000000000000000D0F0A08FF
:101EA800130F0A0833100A081F0F0A080F0F0A0831
:101EB800000000000000000089020A08BD020A08AC
:101EC800C90E0A08E30E0A08B1100A08FF0F0A082B
:101ED800D10F0A080B0F0A08E5110A08250F0A088E
:101EE8004F100A082D110A0835130A0887130A0823
:101EF800F30E0A08F9120A08B10F0A08776972691D
:101F08006E6700544350436C69656E7420736F6349
:101F18006B65743D2578005A00252B3033643A25CB
:101F28003032750025592D256D2D25645425483AE4
:101F3800254D3A2553257A0061736374696D6500F0
:101F48000000000000000000A9130A08CD130A08C9
:101F5800D9130A088D0B0A08B5130A08C1130A0811
:101F6800BB130A08C7130A08AB130A08AF130A08F9
:101F78000000000000000000B9140A08FD140A0857
:101F8800D7140A088D0B0A08D1140A08BB140A08CA
:101F9800C3140A08F7140A08CB140A08B5140A0867
:101FA8000000000000000000FF150A084C04002093
:101FB8000020202020202020202028282828282011
:101FC8002020202020202020202020202020202009
:101FD8002088101010101010101010101010101071
:101FE8001004040404040404040404101010101061
:101FF800101041414141414101010101010101012B
:10200800010101010101010101010101101010107C
:1020180010104242424242420202020202020202FC
:102028000202020202020202020202021010101050
:102038002000000000000000000000000000000078
:102048000000000000000000000000000000000088
:102058000000000000000000000000000000000078
:102068000000000000000000000000000000000068
:102078000000000000000000000000000000000058
:102088000000000000000000000000000000000048
:102098000000000000000000000000000000000038
:1020A8000000000000000000000000000000000028
:1020B8000000000000000000000000000000000018
:1020C8000000000000000000000000000000000008
:1020D80000000000000000000000000000000000F8
:1020E80000000000000000000000000000000000E8
:1020F80000000000000000000000000000000000D8
:1021080000000000000000000000000000000000C7
:1021180000000000430000002D020A08FB070A081F
:102128007D0B0A08D10C0A08890E0A0895130A08BB
:1021380009160A0801180A0831180A0881180A0835
:1021480045190A08C9190A084D1A0A0800000000AA
:0821580000000000000000007F
:04216000000000007B
:10216400C0A80067401F0A08B81F0A080000000042
:10217400BC200A08DC200A08FC200A080000000031
:102184000000000000000000000000001C210A08FC
:10219400000000000000000000000000000000003B
:1021A400000000000000000000000000000000002B
:1021B400000000000000000000000000000000001B
:1021C4000000000000000000000000000C030020DC
:1021D400FFFFFFFF00000102030405060708090AC8
:1021E4000B0C0D0E0F101112131415161718191AC3
:0821F4001B1C1D1E1F2028000A
:0421FC0078563412CB
:04000005080A0018CD
:00000001FF
